{
  "contractName": "SafelySend",
  "abi": [
    {
      "inputs": [],
      "stateMutability": "nonpayable",
      "type": "constructor"
    },
    {
      "anonymous": false,
      "inputs": [
        {
          "indexed": true,
          "internalType": "address",
          "name": "aToAddress",
          "type": "address"
        },
        {
          "indexed": true,
          "internalType": "address",
          "name": "aFromAddress",
          "type": "address"
        },
        {
          "indexed": false,
          "internalType": "uint256",
          "name": "aId",
          "type": "uint256"
        },
        {
          "indexed": false,
          "internalType": "uint256",
          "name": "aAmount",
          "type": "uint256"
        }
      ],
      "name": "TransactionAborted",
      "type": "event"
    },
    {
      "anonymous": false,
      "inputs": [
        {
          "indexed": true,
          "internalType": "address",
          "name": "aToAddress",
          "type": "address"
        },
        {
          "indexed": true,
          "internalType": "address",
          "name": "aFromAddress",
          "type": "address"
        },
        {
          "indexed": false,
          "internalType": "uint256",
          "name": "aId",
          "type": "uint256"
        },
        {
          "indexed": false,
          "internalType": "uint256",
          "name": "aAmount",
          "type": "uint256"
        }
      ],
      "name": "TransactionCompleted",
      "type": "event"
    },
    {
      "anonymous": false,
      "inputs": [
        {
          "indexed": true,
          "internalType": "address",
          "name": "aToAddress",
          "type": "address"
        },
        {
          "indexed": true,
          "internalType": "address",
          "name": "aFromAddress",
          "type": "address"
        },
        {
          "indexed": false,
          "internalType": "uint256",
          "name": "aId",
          "type": "uint256"
        },
        {
          "indexed": false,
          "internalType": "uint256",
          "name": "aAmount",
          "type": "uint256"
        }
      ],
      "name": "TransactionStarted",
      "type": "event"
    },
    {
      "inputs": [],
      "name": "accumTips",
      "outputs": [
        {
          "internalType": "uint256",
          "name": "",
          "type": "uint256"
        }
      ],
      "stateMutability": "view",
      "type": "function",
      "constant": true
    },
    {
      "inputs": [
        {
          "internalType": "address",
          "name": "",
          "type": "address"
        },
        {
          "internalType": "uint256",
          "name": "",
          "type": "uint256"
        }
      ],
      "name": "fromMap",
      "outputs": [
        {
          "internalType": "uint256",
          "name": "",
          "type": "uint256"
        }
      ],
      "stateMutability": "view",
      "type": "function",
      "constant": true
    },
    {
      "inputs": [],
      "name": "nextId",
      "outputs": [
        {
          "internalType": "uint256",
          "name": "",
          "type": "uint256"
        }
      ],
      "stateMutability": "view",
      "type": "function",
      "constant": true
    },
    {
      "inputs": [],
      "name": "owner",
      "outputs": [
        {
          "internalType": "address",
          "name": "",
          "type": "address"
        }
      ],
      "stateMutability": "view",
      "type": "function",
      "constant": true
    },
    {
      "inputs": [
        {
          "internalType": "address",
          "name": "",
          "type": "address"
        },
        {
          "internalType": "uint256",
          "name": "",
          "type": "uint256"
        }
      ],
      "name": "toMap",
      "outputs": [
        {
          "internalType": "uint256",
          "name": "",
          "type": "uint256"
        }
      ],
      "stateMutability": "view",
      "type": "function",
      "constant": true
    },
    {
      "inputs": [
        {
          "internalType": "uint256",
          "name": "",
          "type": "uint256"
        }
      ],
      "name": "transactionMap",
      "outputs": [
        {
          "internalType": "uint256",
          "name": "id",
          "type": "uint256"
        },
        {
          "internalType": "uint256",
          "name": "time",
          "type": "uint256"
        },
        {
          "internalType": "address",
          "name": "from",
          "type": "address"
        },
        {
          "internalType": "address",
          "name": "to",
          "type": "address"
        },
        {
          "internalType": "uint256",
          "name": "amount",
          "type": "uint256"
        },
        {
          "internalType": "uint256",
          "name": "unlockTime",
          "type": "uint256"
        },
        {
          "internalType": "bool",
          "name": "completed",
          "type": "bool"
        },
        {
          "internalType": "bool",
          "name": "reverted",
          "type": "bool"
        }
      ],
      "stateMutability": "view",
      "type": "function",
      "constant": true
    },
    {
      "inputs": [
        {
          "internalType": "address",
          "name": "aToAddress",
          "type": "address"
        },
        {
          "internalType": "uint256",
          "name": "aDelayTime",
          "type": "uint256"
        },
        {
          "internalType": "uint256",
          "name": "aTip",
          "type": "uint256"
        }
      ],
      "name": "sendTransaction",
      "outputs": [],
      "stateMutability": "payable",
      "type": "function",
      "payable": true
    },
    {
      "inputs": [
        {
          "internalType": "uint256",
          "name": "aTransactionId",
          "type": "uint256"
        }
      ],
      "name": "withdrawTransaction",
      "outputs": [],
      "stateMutability": "nonpayable",
      "type": "function"
    },
    {
      "inputs": [
        {
          "internalType": "address",
          "name": "aToAddress",
          "type": "address"
        }
      ],
      "name": "checkTransactionsWaitingReceiver",
      "outputs": [
        {
          "internalType": "uint256[]",
          "name": "",
          "type": "uint256[]"
        }
      ],
      "stateMutability": "view",
      "type": "function",
      "constant": true
    },
    {
      "inputs": [
        {
          "internalType": "address",
          "name": "aFromAddress",
          "type": "address"
        }
      ],
      "name": "checkTransactionsWaitingSender",
      "outputs": [
        {
          "internalType": "uint256[]",
          "name": "",
          "type": "uint256[]"
        }
      ],
      "stateMutability": "view",
      "type": "function",
      "constant": true
    },
    {
      "inputs": [
        {
          "internalType": "uint256",
          "name": "aTransactionId",
          "type": "uint256"
        }
      ],
      "name": "abortTransaction",
      "outputs": [],
      "stateMutability": "nonpayable",
      "type": "function"
    },
    {
      "inputs": [],
      "name": "withdrawTips",
      "outputs": [],
      "stateMutability": "nonpayable",
      "type": "function"
    },
    {
      "inputs": [
        {
          "internalType": "address",
          "name": "newOwner",
          "type": "address"
        }
      ],
      "name": "transferOwner",
      "outputs": [],
      "stateMutability": "nonpayable",
      "type": "function"
    }
  ],
  "bytecode": "0x608060405234801561001057600080fd5b5060008081905550600060028190555033600160006101000a81548173ffffffffffffffffffffffffffffffffffffffff021916908373ffffffffffffffffffffffffffffffffffffffff160217905550611bda806100706000396000f3fe6080604052600436106100c25760003560e01c80638da5cb5b1161007f578063ce1ec6a211610059578063ce1ec6a214610245578063d21ba46514610289578063d4f7f36c146102b4578063fcfca2d4146102f1576100c2565b80638da5cb5b146101c1578063af133021146101ec578063cb08c34214610208576100c2565b8063058ec70f146100c75780633aaa74b2146101045780633ed0bbba1461011b5780634fb2e45d1461014457806361b8ce8c1461016d578063882a144814610198575b600080fd5b3480156100d357600080fd5b506100ee60048036038101906100e99190611285565b61032e565b6040516100fb919061137a565b60405180910390f35b34801561011057600080fd5b506101196103c5565b005b34801561012757600080fd5b50610142600480360381019061013d91906113c8565b6104d0565b005b34801561015057600080fd5b5061016b60048036038101906101669190611285565b6107fe565b005b34801561017957600080fd5b50610182610942565b60405161018f9190611404565b60405180910390f35b3480156101a457600080fd5b506101bf60048036038101906101ba91906113c8565b610948565b005b3480156101cd57600080fd5b506101d6610cbd565b6040516101e3919061142e565b60405180910390f35b61020660048036038101906102019190611449565b610ce3565b005b34801561021457600080fd5b5061022f600480360381019061022a9190611285565b611081565b60405161023c919061137a565b60405180910390f35b34801561025157600080fd5b5061026c600480360381019061026791906113c8565b611118565b6040516102809897969594939291906114b7565b60405180910390f35b34801561029557600080fd5b5061029e6111ba565b6040516102ab9190611404565b60405180910390f35b3480156102c057600080fd5b506102db60048036038101906102d69190611535565b6111c0565b6040516102e89190611404565b60405180910390f35b3480156102fd57600080fd5b5061031860048036038101906103139190611535565b6111f1565b6040516103259190611404565b60405180910390f35b6060600560008373ffffffffffffffffffffffffffffffffffffffff1673ffffffffffffffffffffffffffffffffffffffff1681526020019081526020016000208054806020026020016040519081016040528092919081815260200182805480156103b957602002820191906000526020600020905b8154815260200190600101908083116103a5575b50505050509050919050565b600160009054906101000a900473ffffffffffffffffffffffffffffffffffffffff1673ffffffffffffffffffffffffffffffffffffffff163373ffffffffffffffffffffffffffffffffffffffff1614610455576040517f08c379a000000000000000000000000000000000000000000000000000000000815260040161044c906115d2565b60405180910390fd5b600060025490506000600281905550600160009054906101000a900473ffffffffffffffffffffffffffffffffffffffff1673ffffffffffffffffffffffffffffffffffffffff166108fc829081150290604051600060405180830381858888f193505050501580156104cc573d6000803e3d6000fd5b5050565b6000600360008381526020019081526020016000206040518061010001604052908160008201548152602001600182015481526020016002820160009054906101000a900473ffffffffffffffffffffffffffffffffffffffff1673ffffffffffffffffffffffffffffffffffffffff1673ffffffffffffffffffffffffffffffffffffffff1681526020016003820160009054906101000a900473ffffffffffffffffffffffffffffffffffffffff1673ffffffffffffffffffffffffffffffffffffffff1673ffffffffffffffffffffffffffffffffffffffff16815260200160048201548152602001600582015481526020016006820160009054906101000a900460ff161515151581526020016006820160019054906101000a900460ff1615151515815250509050806040015173ffffffffffffffffffffffffffffffffffffffff163373ffffffffffffffffffffffffffffffffffffffff161461066f576040517f08c379a000000000000000000000000000000000000000000000000000000000815260040161066690611664565b60405180910390fd5b600015158160c001511515146106ba576040517f08c379a00000000000000000000000000000000000000000000000000000000081526004016106b1906116d0565b60405180910390fd5b600015158160e00151151514610705576040517f08c379a00000000000000000000000000000000000000000000000000000000081526004016106fc9061173c565b60405180910390fd5b60016003600084815260200190815260200160002060060160016101000a81548160ff021916908315150217905550806040015173ffffffffffffffffffffffffffffffffffffffff166108fc82608001519081150290604051600060405180830381858888f19350505050158015610782573d6000803e3d6000fd5b50806040015173ffffffffffffffffffffffffffffffffffffffff16816060015173ffffffffffffffffffffffffffffffffffffffff167ff30c7b8f1715406a79855e092ed673dcd916f7fe5af56cba9af4c491d14bf9d6836000015184608001516040516107f292919061175c565b60405180910390a35050565b600160009054906101000a900473ffffffffffffffffffffffffffffffffffffffff1673ffffffffffffffffffffffffffffffffffffffff163373ffffffffffffffffffffffffffffffffffffffff161461088e576040517f08c379a0000000000000000000000000000000000000000000000000000000008152600401610885906117d1565b60405180910390fd5b600073ffffffffffffffffffffffffffffffffffffffff168173ffffffffffffffffffffffffffffffffffffffff1614156108fe576040517f08c379a00000000000000000000000000000000000000000000000000000000081526004016108f59061183d565b60405180910390fd5b80600160006101000a81548173ffffffffffffffffffffffffffffffffffffffff021916908373ffffffffffffffffffffffffffffffffffffffff16021790555050565b60005481565b6000600360008381526020019081526020016000206040518061010001604052908160008201548152602001600182015481526020016002820160009054906101000a900473ffffffffffffffffffffffffffffffffffffffff1673ffffffffffffffffffffffffffffffffffffffff1673ffffffffffffffffffffffffffffffffffffffff1681526020016003820160009054906101000a900473ffffffffffffffffffffffffffffffffffffffff1673ffffffffffffffffffffffffffffffffffffffff1673ffffffffffffffffffffffffffffffffffffffff16815260200160048201548152602001600582015481526020016006820160009054906101000a900460ff161515151581526020016006820160019054906101000a900460ff1615151515815250509050600015158160c00151151514610ac0576040517f08c379a0000000000000000000000000000000000000000000000000000000008152600401610ab7906118cf565b60405180910390fd5b600015158160e00151151514610b0b576040517f08c379a0000000000000000000000000000000000000000000000000000000008152600401610b029061193b565b60405180910390fd5b8060a00151421015610b52576040517f08c379a0000000000000000000000000000000000000000000000000000000008152600401610b49906119cd565b60405180910390fd5b806060015173ffffffffffffffffffffffffffffffffffffffff163373ffffffffffffffffffffffffffffffffffffffff1614610bc4576040517f08c379a0000000000000000000000000000000000000000000000000000000008152600401610bbb90611a5f565b60405180910390fd5b60016003600084815260200190815260200160002060060160006101000a81548160ff021916908315150217905550806060015173ffffffffffffffffffffffffffffffffffffffff166108fc82608001519081150290604051600060405180830381858888f19350505050158015610c41573d6000803e3d6000fd5b50806040015173ffffffffffffffffffffffffffffffffffffffff16816060015173ffffffffffffffffffffffffffffffffffffffff167f394c4e679790fab24fd86614fd812811c9c835e4c475bdfc3d26fd0d6f7ca6fd83600001518460800151604051610cb192919061175c565b60405180910390a35050565b600160009054906101000a900473ffffffffffffffffffffffffffffffffffffffff1681565b60008134610cf19190611aae565b905060008342610d019190611ae2565b905034821115610d46576040517f08c379a0000000000000000000000000000000000000000000000000000000008152600401610d3d90611b84565b60405180910390fd5b42811015610d89576040517f08c379a0000000000000000000000000000000000000000000000000000000008152600401610d8090611b84565b60405180910390fd5b600060405180610100016040528060005481526020014281526020013373ffffffffffffffffffffffffffffffffffffffff1681526020018773ffffffffffffffffffffffffffffffffffffffff168152602001848152602001838152602001600015158152602001600015158152509050806003600080548152602001908152602001600020600082015181600001556020820151816001015560408201518160020160006101000a81548173ffffffffffffffffffffffffffffffffffffffff021916908373ffffffffffffffffffffffffffffffffffffffff16021790555060608201518160030160006101000a81548173ffffffffffffffffffffffffffffffffffffffff021916908373ffffffffffffffffffffffffffffffffffffffff1602179055506080820151816004015560a0820151816005015560c08201518160060160006101000a81548160ff02191690831515021790555060e08201518160060160016101000a81548160ff021916908315150217905550905050600460003373ffffffffffffffffffffffffffffffffffffffff1673ffffffffffffffffffffffffffffffffffffffff1681526020019081526020016000206000549080600181540180825580915050600190039060005260206000200160009091909190915055600560008773ffffffffffffffffffffffffffffffffffffffff1673ffffffffffffffffffffffffffffffffffffffff168152602001908152602001600020600054908060018154018082558091505060019003906000526020600020016000909190919091505583600254610fe79190611ae2565b6002819055506001600054610ffc9190611ae2565b600081905550806040015173ffffffffffffffffffffffffffffffffffffffff16816060015173ffffffffffffffffffffffffffffffffffffffff167f919df9c6f395c2e38d7e515f6f63d2e941861a891730ed24dadf30464642c1cb8360000151846080015160405161107192919061175c565b60405180910390a3505050505050565b6060600460008373ffffffffffffffffffffffffffffffffffffffff1673ffffffffffffffffffffffffffffffffffffffff16815260200190815260200160002080548060200260200160405190810160405280929190818152602001828054801561110c57602002820191906000526020600020905b8154815260200190600101908083116110f8575b50505050509050919050565b60036020528060005260406000206000915090508060000154908060010154908060020160009054906101000a900473ffffffffffffffffffffffffffffffffffffffff16908060030160009054906101000a900473ffffffffffffffffffffffffffffffffffffffff16908060040154908060050154908060060160009054906101000a900460ff16908060060160019054906101000a900460ff16905088565b60025481565b600460205281600052604060002081815481106111dc57600080fd5b90600052602060002001600091509150505481565b6005602052816000526040600020818154811061120d57600080fd5b90600052602060002001600091509150505481565b600080fd5b600073ffffffffffffffffffffffffffffffffffffffff82169050919050565b600061125282611227565b9050919050565b61126281611247565b811461126d57600080fd5b50565b60008135905061127f81611259565b92915050565b60006020828403121561129b5761129a611222565b5b60006112a984828501611270565b91505092915050565b600081519050919050565b600082825260208201905092915050565b6000819050602082019050919050565b6000819050919050565b6112f1816112de565b82525050565b600061130383836112e8565b60208301905092915050565b6000602082019050919050565b6000611327826112b2565b61133181856112bd565b935061133c836112ce565b8060005b8381101561136d57815161135488826112f7565b975061135f8361130f565b925050600181019050611340565b5085935050505092915050565b60006020820190508181036000830152611394818461131c565b905092915050565b6113a5816112de565b81146113b057600080fd5b50565b6000813590506113c28161139c565b92915050565b6000602082840312156113de576113dd611222565b5b60006113ec848285016113b3565b91505092915050565b6113fe816112de565b82525050565b600060208201905061141960008301846113f5565b92915050565b61142881611247565b82525050565b6000602082019050611443600083018461141f565b92915050565b60008060006060848603121561146257611461611222565b5b600061147086828701611270565b9350506020611481868287016113b3565b9250506040611492868287016113b3565b9150509250925092565b60008115159050919050565b6114b18161149c565b82525050565b6000610100820190506114cd600083018b6113f5565b6114da602083018a6113f5565b6114e7604083018961141f565b6114f4606083018861141f565b61150160808301876113f5565b61150e60a08301866113f5565b61151b60c08301856114a8565b61152860e08301846114a8565b9998505050505050505050565b6000806040838503121561154c5761154b611222565b5b600061155a85828601611270565b925050602061156b858286016113b3565b9150509250929050565b600082825260208201905092915050565b7f4f6e6c79206f776e65722063616e207769746864726177207469707300000000600082015250565b60006115bc601c83611575565b91506115c782611586565b602082019050919050565b600060208201905081810360008301526115eb816115af565b9050919050565b7f4f6e6c79207468652073656e6465722063616e2072657665727420612074726160008201527f6e73616374696f6e2e0000000000000000000000000000000000000000000000602082015250565b600061164e602983611575565b9150611659826115f2565b604082019050919050565b6000602082019050818103600083015261167d81611641565b9050919050565b7f5472616e73616374696f6e20616c72656164792070726f6365737365642e0000600082015250565b60006116ba601e83611575565b91506116c582611684565b602082019050919050565b600060208201905081810360008301526116e9816116ad565b9050919050565b7f5472616e73616374696f6e20616c72656164792072657665727465642e000000600082015250565b6000611726601d83611575565b9150611731826116f0565b602082019050919050565b6000602082019050818103600083015261175581611719565b9050919050565b600060408201905061177160008301856113f5565b61177e60208301846113f5565b9392505050565b7f6f6e6c79206f776e65722063616e206368616e6765206f776e65720000000000600082015250565b60006117bb601b83611575565b91506117c682611785565b602082019050919050565b600060208201905081810360008301526117ea816117ae565b9050919050565b7f646f6e277420736574206f776e657220746f206e756c6c206164647265737300600082015250565b6000611827601f83611575565b9150611832826117f1565b602082019050919050565b600060208201905081810360008301526118568161181a565b9050919050565b7f54686973207472616e73616374696f6e2068617320616c72656164792062656560008201527f6e20636f6d706c657465642e0000000000000000000000000000000000000000602082015250565b60006118b9602c83611575565b91506118c48261185d565b604082019050919050565b600060208201905081810360008301526118e8816118ac565b9050919050565b7f54686973207472616e73616374696f6e207761732072657665727465642e0000600082015250565b6000611925601e83611575565b9150611930826118ef565b602082019050919050565b6000602082019050818103600083015261195481611918565b9050919050565b7f5472616e73616374696f6e2063616e27742062652077697468647261776e207960008201527f6574000000000000000000000000000000000000000000000000000000000000602082015250565b60006119b7602283611575565b91506119c28261195b565b604082019050919050565b600060208201905081810360008301526119e6816119aa565b9050919050565b7f4f6e6c792072656365697665722063616e20776974686472617720746869732060008201527f7472616e73616374696f6e000000000000000000000000000000000000000000602082015250565b6000611a49602b83611575565b9150611a54826119ed565b604082019050919050565b60006020820190508181036000830152611a7881611a3c565b9050919050565b7f4e487b7100000000000000000000000000000000000000000000000000000000600052601160045260246000fd5b6000611ab9826112de565b9150611ac4836112de565b925082821015611ad757611ad6611a7f565b5b828203905092915050565b6000611aed826112de565b9150611af8836112de565b9250827fffffffffffffffffffffffffffffffffffffffffffffffffffffffffffffffff03821115611b2d57611b2c611a7f565b5b828201905092915050565b7f6f766572666c6f77206572726f72000000000000000000000000000000000000600082015250565b6000611b6e600e83611575565b9150611b7982611b38565b602082019050919050565b60006020820190508181036000830152611b9d81611b61565b905091905056fea2646970667358221220a89eee96c17059598e37786950c90ccd4bcbc85d996bc4083413a9c2d8a4817864736f6c634300080b0033",
  "immutableReferences": {},
  "source": "// SPDX-License-Identifier: MIT\npragma solidity >=0.4.22 <0.9.0;\n\ncontract SafelySend {\n\n  struct Transaction {\n    uint id;\n    uint time;\n    address from;\n    address to;\n    uint amount;\n    uint unlockTime;\n    bool completed;\n    bool reverted;\n  }\n\n  uint public nextId;\n  address public owner;\n  uint public accumTips;\n  mapping(uint => Transaction) public transactionMap; //all transactions mapped to their uniqueId\n  mapping(address => uint[]) public fromMap; //all transactionIds for which the \"from\" address is this address\n  mapping(address => uint[]) public toMap; //all transactionIds for which the \"to\" address is this address\n\n  constructor() {\n    nextId = 0;\n    accumTips = 0;\n    owner = msg.sender;\n  }\n\n  function sendTransaction(address aToAddress, uint aDelayTime, uint aTip) public payable {\n    uint transactionVal = msg.value - aTip;\n    uint activeTime = block.timestamp + aDelayTime;\n    require(transactionVal <= msg.value, \"overflow error\");\n    require(activeTime >= block.timestamp, \"overflow error\");\n\n    Transaction memory newTx = Transaction(nextId, block.timestamp, msg.sender, aToAddress, transactionVal, activeTime, false, false);\n    transactionMap[nextId] = newTx;\n    fromMap[msg.sender].push(nextId);\n    toMap[aToAddress].push(nextId);\n\n    accumTips = accumTips + aTip;\n    nextId = nextId + 1;\n\n    emit TransactionStarted(newTx.to, newTx.from, newTx.id, newTx.amount);\n  }\n\n  function withdrawTransaction(uint aTransactionId) public {\n    Transaction memory thisTx = transactionMap[aTransactionId];\n    require(thisTx.completed == false, \"This transaction has already been completed.\");\n    require(thisTx.reverted == false, \"This transaction was reverted.\");\n    require(block.timestamp >= thisTx.unlockTime, \"Transaction can't be withdrawn yet\");\n    require(msg.sender == thisTx.to, \"Only receiver can withdraw this transaction\");\n\n    transactionMap[aTransactionId].completed = true;\n    payable(thisTx.to).transfer(thisTx.amount);\n\n    emit TransactionCompleted(thisTx.to, thisTx.from, thisTx.id, thisTx.amount);\n  }\n\n  function checkTransactionsWaitingReceiver(address aToAddress) public view returns (uint[] memory) {\n    return toMap[aToAddress];\n  }\n\n  function checkTransactionsWaitingSender(address aFromAddress) public view returns (uint[] memory) {\n    return fromMap[aFromAddress];\n  }\n\n  function abortTransaction(uint aTransactionId) public {\n    Transaction memory thisTx = transactionMap[aTransactionId];\n    require(msg.sender == thisTx.from, \"Only the sender can revert a transaction.\");\n    require(thisTx.completed == false, \"Transaction already processed.\");\n    require(thisTx.reverted == false, \"Transaction already reverted.\");\n\n    transactionMap[aTransactionId].reverted = true;\n    payable(thisTx.from).transfer(thisTx.amount);\n    \n    emit TransactionAborted(thisTx.to, thisTx.from, thisTx.id, thisTx.amount);\n  }\n\n  function withdrawTips() public {\n    require(msg.sender == owner, \"Only owner can withdraw tips\");\n    uint temp = accumTips;\n    accumTips = 0;\n    payable(owner).transfer(temp);\n  }\n\n  function transferOwner(address newOwner) public {\n    require(msg.sender == owner, \"only owner can change owner\");\n    require(newOwner != address(0), \"don't set owner to null address\");\n    owner = newOwner;\n  }\n\n  event TransactionStarted(address indexed aToAddress, address indexed aFromAddress, uint aId, uint aAmount);\n  event TransactionCompleted(address indexed aToAddress, address indexed aFromAddress, uint aId, uint aAmount);\n  event TransactionAborted(address indexed aToAddress, address indexed aFromAddress, uint aId, uint aAmount);\n\n}\n",
  "sourcePath": "/Users/Kyle/Documents/safesend/contract/contracts/SafelySend.sol",
  "compiler": {
    "name": "solc",
    "version": "0.8.11+commit.d7f03943.Emscripten.clang"
  },
  "schemaVersion": "3.4.4",
  "updatedAt": "2022-07-22T01:11:18.025Z",
  "networkType": "ethereum",
  "devdoc": {
    "kind": "dev",
    "methods": {},
    "version": 1
  },
  "userdoc": {
    "kind": "user",
    "methods": {},
    "version": 1
  }
}