{
  "contractName": "SafeSend",
  "abi": [
    {
      "inputs": [],
      "stateMutability": "nonpayable",
      "type": "constructor"
    },
    {
      "anonymous": false,
      "inputs": [
        {
          "indexed": true,
          "internalType": "address",
          "name": "aToAddress",
          "type": "address"
        },
        {
          "indexed": true,
          "internalType": "address",
          "name": "aFromAddress",
          "type": "address"
        },
        {
          "indexed": false,
          "internalType": "uint256",
          "name": "aId",
          "type": "uint256"
        },
        {
          "indexed": false,
          "internalType": "uint256",
          "name": "aAmount",
          "type": "uint256"
        }
      ],
      "name": "TransactionAborted",
      "type": "event"
    },
    {
      "anonymous": false,
      "inputs": [
        {
          "indexed": true,
          "internalType": "address",
          "name": "aToAddress",
          "type": "address"
        },
        {
          "indexed": true,
          "internalType": "address",
          "name": "aFromAddress",
          "type": "address"
        },
        {
          "indexed": false,
          "internalType": "uint256",
          "name": "aId",
          "type": "uint256"
        },
        {
          "indexed": false,
          "internalType": "uint256",
          "name": "aAmount",
          "type": "uint256"
        }
      ],
      "name": "TransactionCompleted",
      "type": "event"
    },
    {
      "anonymous": false,
      "inputs": [
        {
          "indexed": true,
          "internalType": "address",
          "name": "aToAddress",
          "type": "address"
        },
        {
          "indexed": true,
          "internalType": "address",
          "name": "aFromAddress",
          "type": "address"
        },
        {
          "indexed": false,
          "internalType": "uint256",
          "name": "aId",
          "type": "uint256"
        },
        {
          "indexed": false,
          "internalType": "uint256",
          "name": "aAmount",
          "type": "uint256"
        }
      ],
      "name": "TransactionStarted",
      "type": "event"
    },
    {
      "inputs": [
        {
          "internalType": "address",
          "name": "",
          "type": "address"
        },
        {
          "internalType": "uint256",
          "name": "",
          "type": "uint256"
        }
      ],
      "name": "fromMap",
      "outputs": [
        {
          "internalType": "uint256",
          "name": "",
          "type": "uint256"
        }
      ],
      "stateMutability": "view",
      "type": "function",
      "constant": true
    },
    {
      "inputs": [],
      "name": "nextId",
      "outputs": [
        {
          "internalType": "uint256",
          "name": "",
          "type": "uint256"
        }
      ],
      "stateMutability": "view",
      "type": "function",
      "constant": true
    },
    {
      "inputs": [
        {
          "internalType": "address",
          "name": "",
          "type": "address"
        },
        {
          "internalType": "uint256",
          "name": "",
          "type": "uint256"
        }
      ],
      "name": "toMap",
      "outputs": [
        {
          "internalType": "uint256",
          "name": "",
          "type": "uint256"
        }
      ],
      "stateMutability": "view",
      "type": "function",
      "constant": true
    },
    {
      "inputs": [
        {
          "internalType": "uint256",
          "name": "",
          "type": "uint256"
        }
      ],
      "name": "transactionMap",
      "outputs": [
        {
          "internalType": "uint256",
          "name": "id",
          "type": "uint256"
        },
        {
          "internalType": "address",
          "name": "from",
          "type": "address"
        },
        {
          "internalType": "address",
          "name": "to",
          "type": "address"
        },
        {
          "internalType": "uint256",
          "name": "amount",
          "type": "uint256"
        },
        {
          "internalType": "uint256",
          "name": "unlockTime",
          "type": "uint256"
        },
        {
          "internalType": "bool",
          "name": "completed",
          "type": "bool"
        },
        {
          "internalType": "bool",
          "name": "reverted",
          "type": "bool"
        }
      ],
      "stateMutability": "view",
      "type": "function",
      "constant": true
    },
    {
      "inputs": [
        {
          "internalType": "address",
          "name": "aToAddress",
          "type": "address"
        },
        {
          "internalType": "uint256",
          "name": "aDelayTime",
          "type": "uint256"
        }
      ],
      "name": "sendTransaction",
      "outputs": [],
      "stateMutability": "payable",
      "type": "function",
      "payable": true
    },
    {
      "inputs": [
        {
          "internalType": "uint256",
          "name": "aTransactionId",
          "type": "uint256"
        }
      ],
      "name": "withdrawTransaction",
      "outputs": [],
      "stateMutability": "nonpayable",
      "type": "function"
    },
    {
      "inputs": [
        {
          "internalType": "address",
          "name": "aToAddress",
          "type": "address"
        }
      ],
      "name": "checkTransactionsWaitingReceiver",
      "outputs": [
        {
          "internalType": "uint256[]",
          "name": "",
          "type": "uint256[]"
        }
      ],
      "stateMutability": "view",
      "type": "function",
      "constant": true
    },
    {
      "inputs": [
        {
          "internalType": "address",
          "name": "aFromAddress",
          "type": "address"
        }
      ],
      "name": "checkTransactionsWaitingSender",
      "outputs": [
        {
          "internalType": "uint256[]",
          "name": "",
          "type": "uint256[]"
        }
      ],
      "stateMutability": "view",
      "type": "function",
      "constant": true
    },
    {
      "inputs": [
        {
          "internalType": "uint256",
          "name": "aTransactionId",
          "type": "uint256"
        }
      ],
      "name": "abortTransaction",
      "outputs": [],
      "stateMutability": "nonpayable",
      "type": "function"
    }
  ],
  "bytecode": "0x608060405234801561001057600080fd5b506000808190555061154a806100276000396000f3fe6080604052600436106100865760003560e01c8063cb08c34211610059578063cb08c34214610145578063ce1ec6a214610182578063d4f7f36c146101c5578063d709deb714610202578063fcfca2d41461021e57610086565b8063058ec70f1461008b5780633ed0bbba146100c857806361b8ce8c146100f1578063882a14481461011c575b600080fd5b34801561009757600080fd5b506100b260048036038101906100ad9190610e56565b61025b565b6040516100bf9190610f4b565b60405180910390f35b3480156100d457600080fd5b506100ef60048036038101906100ea9190610f99565b6102f2565b005b3480156100fd57600080fd5b50610106610614565b6040516101139190610fd5565b60405180910390f35b34801561012857600080fd5b50610143600480360381019061013e9190610f99565b61061a565b005b34801561015157600080fd5b5061016c60048036038101906101679190610e56565b610983565b6040516101799190610f4b565b60405180910390f35b34801561018e57600080fd5b506101a960048036038101906101a49190610f99565b610a1a565b6040516101bc979695949392919061101a565b60405180910390f35b3480156101d157600080fd5b506101ec60048036038101906101e79190611089565b610ab6565b6040516101f99190610fd5565b60405180910390f35b61021c60048036038101906102179190611089565b610ae7565b005b34801561022a57600080fd5b5061024560048036038101906102409190611089565b610dc2565b6040516102529190610fd5565b60405180910390f35b6060600360008373ffffffffffffffffffffffffffffffffffffffff1673ffffffffffffffffffffffffffffffffffffffff1681526020019081526020016000208054806020026020016040519081016040528092919081815260200182805480156102e657602002820191906000526020600020905b8154815260200190600101908083116102d2575b50505050509050919050565b6000600160008381526020019081526020016000206040518060e0016040529081600082015481526020016001820160009054906101000a900473ffffffffffffffffffffffffffffffffffffffff1673ffffffffffffffffffffffffffffffffffffffff1673ffffffffffffffffffffffffffffffffffffffff1681526020016002820160009054906101000a900473ffffffffffffffffffffffffffffffffffffffff1673ffffffffffffffffffffffffffffffffffffffff1673ffffffffffffffffffffffffffffffffffffffff16815260200160038201548152602001600482015481526020016005820160009054906101000a900460ff161515151581526020016005820160019054906101000a900460ff1615151515815250509050806020015173ffffffffffffffffffffffffffffffffffffffff163373ffffffffffffffffffffffffffffffffffffffff1614610486576040517f08c379a000000000000000000000000000000000000000000000000000000000815260040161047d9061114c565b60405180910390fd5b600015158160a001511515146104d1576040517f08c379a00000000000000000000000000000000000000000000000000000000081526004016104c8906111b8565b60405180910390fd5b600015158160c0015115151461051c576040517f08c379a000000000000000000000000000000000000000000000000000000000815260040161051390611224565b60405180910390fd5b600180600084815260200190815260200160002060050160016101000a81548160ff021916908315150217905550806020015173ffffffffffffffffffffffffffffffffffffffff166108fc82606001519081150290604051600060405180830381858888f19350505050158015610598573d6000803e3d6000fd5b50806020015173ffffffffffffffffffffffffffffffffffffffff16816040015173ffffffffffffffffffffffffffffffffffffffff167ff30c7b8f1715406a79855e092ed673dcd916f7fe5af56cba9af4c491d14bf9d683600001518460600151604051610608929190611244565b60405180910390a35050565b60005481565b6000600160008381526020019081526020016000206040518060e0016040529081600082015481526020016001820160009054906101000a900473ffffffffffffffffffffffffffffffffffffffff1673ffffffffffffffffffffffffffffffffffffffff1673ffffffffffffffffffffffffffffffffffffffff1681526020016002820160009054906101000a900473ffffffffffffffffffffffffffffffffffffffff1673ffffffffffffffffffffffffffffffffffffffff1673ffffffffffffffffffffffffffffffffffffffff16815260200160038201548152602001600482015481526020016005820160009054906101000a900460ff161515151581526020016005820160019054906101000a900460ff1615151515815250509050600015158160a00151151514610787576040517f08c379a000000000000000000000000000000000000000000000000000000000815260040161077e906112df565b60405180910390fd5b600015158160c001511515146107d2576040517f08c379a00000000000000000000000000000000000000000000000000000000081526004016107c99061134b565b60405180910390fd5b8060800151421015610819576040517f08c379a0000000000000000000000000000000000000000000000000000000008152600401610810906113dd565b60405180910390fd5b806040015173ffffffffffffffffffffffffffffffffffffffff163373ffffffffffffffffffffffffffffffffffffffff161461088b576040517f08c379a00000000000000000000000000000000000000000000000000000000081526004016108829061146f565b60405180910390fd5b600180600084815260200190815260200160002060050160006101000a81548160ff021916908315150217905550806040015173ffffffffffffffffffffffffffffffffffffffff166108fc82606001519081150290604051600060405180830381858888f19350505050158015610907573d6000803e3d6000fd5b50806020015173ffffffffffffffffffffffffffffffffffffffff16816040015173ffffffffffffffffffffffffffffffffffffffff167f394c4e679790fab24fd86614fd812811c9c835e4c475bdfc3d26fd0d6f7ca6fd83600001518460600151604051610977929190611244565b60405180910390a35050565b6060600260008373ffffffffffffffffffffffffffffffffffffffff1673ffffffffffffffffffffffffffffffffffffffff168152602001908152602001600020805480602002602001604051908101604052809291908181526020018280548015610a0e57602002820191906000526020600020905b8154815260200190600101908083116109fa575b50505050509050919050565b60016020528060005260406000206000915090508060000154908060010160009054906101000a900473ffffffffffffffffffffffffffffffffffffffff16908060020160009054906101000a900473ffffffffffffffffffffffffffffffffffffffff16908060030154908060040154908060050160009054906101000a900460ff16908060050160019054906101000a900460ff16905087565b60026020528160005260406000208181548110610ad257600080fd5b90600052602060002001600091509150505481565b60006040518060e0016040528060005481526020013373ffffffffffffffffffffffffffffffffffffffff1681526020018473ffffffffffffffffffffffffffffffffffffffff1681526020013481526020018342610b4691906114be565b81526020016000151581526020016000151581525090508060016000805481526020019081526020016000206000820151816000015560208201518160010160006101000a81548173ffffffffffffffffffffffffffffffffffffffff021916908373ffffffffffffffffffffffffffffffffffffffff16021790555060408201518160020160006101000a81548173ffffffffffffffffffffffffffffffffffffffff021916908373ffffffffffffffffffffffffffffffffffffffff160217905550606082015181600301556080820151816004015560a08201518160050160006101000a81548160ff02191690831515021790555060c08201518160050160016101000a81548160ff021916908315150217905550905050600260003373ffffffffffffffffffffffffffffffffffffffff1673ffffffffffffffffffffffffffffffffffffffff1681526020019081526020016000206000549080600181540180825580915050600190039060005260206000200160009091909190915055600360008473ffffffffffffffffffffffffffffffffffffffff1673ffffffffffffffffffffffffffffffffffffffff16815260200190815260200160002060005490806001815401808255809150506001900390600052602060002001600090919091909150556001600054610d4091906114be565b600081905550806020015173ffffffffffffffffffffffffffffffffffffffff16816040015173ffffffffffffffffffffffffffffffffffffffff167f919df9c6f395c2e38d7e515f6f63d2e941861a891730ed24dadf30464642c1cb83600001518460600151604051610db5929190611244565b60405180910390a3505050565b60036020528160005260406000208181548110610dde57600080fd5b90600052602060002001600091509150505481565b600080fd5b600073ffffffffffffffffffffffffffffffffffffffff82169050919050565b6000610e2382610df8565b9050919050565b610e3381610e18565b8114610e3e57600080fd5b50565b600081359050610e5081610e2a565b92915050565b600060208284031215610e6c57610e6b610df3565b5b6000610e7a84828501610e41565b91505092915050565b600081519050919050565b600082825260208201905092915050565b6000819050602082019050919050565b6000819050919050565b610ec281610eaf565b82525050565b6000610ed48383610eb9565b60208301905092915050565b6000602082019050919050565b6000610ef882610e83565b610f028185610e8e565b9350610f0d83610e9f565b8060005b83811015610f3e578151610f258882610ec8565b9750610f3083610ee0565b925050600181019050610f11565b5085935050505092915050565b60006020820190508181036000830152610f658184610eed565b905092915050565b610f7681610eaf565b8114610f8157600080fd5b50565b600081359050610f9381610f6d565b92915050565b600060208284031215610faf57610fae610df3565b5b6000610fbd84828501610f84565b91505092915050565b610fcf81610eaf565b82525050565b6000602082019050610fea6000830184610fc6565b92915050565b610ff981610e18565b82525050565b60008115159050919050565b61101481610fff565b82525050565b600060e08201905061102f600083018a610fc6565b61103c6020830189610ff0565b6110496040830188610ff0565b6110566060830187610fc6565b6110636080830186610fc6565b61107060a083018561100b565b61107d60c083018461100b565b98975050505050505050565b600080604083850312156110a05761109f610df3565b5b60006110ae85828601610e41565b92505060206110bf85828601610f84565b9150509250929050565b600082825260208201905092915050565b7f4f6e6c79207468652073656e6465722063616e2072657665727420612074726160008201527f6e73616374696f6e2e0000000000000000000000000000000000000000000000602082015250565b60006111366029836110c9565b9150611141826110da565b604082019050919050565b6000602082019050818103600083015261116581611129565b9050919050565b7f5472616e73616374696f6e20616c72656164792070726f6365737365642e0000600082015250565b60006111a2601e836110c9565b91506111ad8261116c565b602082019050919050565b600060208201905081810360008301526111d181611195565b9050919050565b7f5472616e73616374696f6e20616c72656164792072657665727465642e000000600082015250565b600061120e601d836110c9565b9150611219826111d8565b602082019050919050565b6000602082019050818103600083015261123d81611201565b9050919050565b60006040820190506112596000830185610fc6565b6112666020830184610fc6565b9392505050565b7f54686973207472616e73616374696f6e2068617320616c72656164792062656560008201527f6e20636f6d706c657465642e0000000000000000000000000000000000000000602082015250565b60006112c9602c836110c9565b91506112d48261126d565b604082019050919050565b600060208201905081810360008301526112f8816112bc565b9050919050565b7f54686973207472616e73616374696f6e207761732072657665727465642e0000600082015250565b6000611335601e836110c9565b9150611340826112ff565b602082019050919050565b6000602082019050818103600083015261136481611328565b9050919050565b7f5472616e73616374696f6e2063616e27742062652077697468647261776e207960008201527f6574000000000000000000000000000000000000000000000000000000000000602082015250565b60006113c76022836110c9565b91506113d28261136b565b604082019050919050565b600060208201905081810360008301526113f6816113ba565b9050919050565b7f4f6e6c792072656365697665722063616e20776974686472617720746869732060008201527f7472616e73616374696f6e000000000000000000000000000000000000000000602082015250565b6000611459602b836110c9565b9150611464826113fd565b604082019050919050565b600060208201905081810360008301526114888161144c565b9050919050565b7f4e487b7100000000000000000000000000000000000000000000000000000000600052601160045260246000fd5b60006114c982610eaf565b91506114d483610eaf565b9250827fffffffffffffffffffffffffffffffffffffffffffffffffffffffffffffffff038211156115095761150861148f565b5b82820190509291505056fea2646970667358221220b49c2310f094bda638c214da10f86333faf601dec2cd95d8a48703b41fc508fd64736f6c634300080b0033",
  "immutableReferences": {},
  "source": "// SPDX-License-Identifier: MIT\npragma solidity >=0.4.22 <0.9.0;\n\ncontract SafeSend {\n\n  struct Transaction {\n    uint id;\n    address from;\n    address to;\n    uint amount;\n    uint unlockTime;\n    bool completed;\n    bool reverted;\n  }\n\n  uint public nextId;\n\n  mapping(uint => Transaction) public transactionMap; //all transactions mapped to their uniqueId\n  mapping(address => uint[]) public fromMap; //all transactionIds for which the \"from\" address is this address\n  mapping(address => uint[]) public toMap; //all transactionIds for which the \"to\" address is this address\n\n  constructor() {\n    nextId = 0;\n  }\n\n  function sendTransaction(address aToAddress, uint aDelayTime) public payable {\n    Transaction memory newTx = Transaction(nextId, msg.sender, aToAddress, msg.value, block.timestamp + aDelayTime, false, false);\n    transactionMap[nextId] = newTx;\n    fromMap[msg.sender].push(nextId);\n    toMap[aToAddress].push(nextId);\n\n    nextId = nextId + 1;\n    emit TransactionStarted(newTx.to, newTx.from, newTx.id, newTx.amount);\n\n  }\n\n  function withdrawTransaction(uint aTransactionId) public {\n    Transaction memory thisTx = transactionMap[aTransactionId];\n    require(thisTx.completed == false, \"This transaction has already been completed.\");\n    require(thisTx.reverted == false, \"This transaction was reverted.\");\n    require(block.timestamp >= thisTx.unlockTime, \"Transaction can't be withdrawn yet\");\n    require(msg.sender == thisTx.to, \"Only receiver can withdraw this transaction\");\n\n    transactionMap[aTransactionId].completed = true;\n    payable(thisTx.to).transfer(thisTx.amount);\n    emit TransactionCompleted(thisTx.to, thisTx.from, thisTx.id, thisTx.amount);\n\n  }\n\n  function checkTransactionsWaitingReceiver(address aToAddress) public view returns (uint[] memory) {\n    return toMap[aToAddress];\n  }\n\n  function checkTransactionsWaitingSender(address aFromAddress) public view returns (uint[] memory) {\n    return fromMap[aFromAddress];\n  }\n\n  function abortTransaction(uint aTransactionId) public {\n    Transaction memory thisTx = transactionMap[aTransactionId];\n    require(msg.sender == thisTx.from, \"Only the sender can revert a transaction.\");\n    require(thisTx.completed == false, \"Transaction already processed.\");\n    require(thisTx.reverted == false, \"Transaction already reverted.\");\n\n    transactionMap[aTransactionId].reverted = true;\n    payable(thisTx.from).transfer(thisTx.amount);\n    emit TransactionAborted(thisTx.to, thisTx.from, thisTx.id, thisTx.amount);\n  }\n\n  event TransactionStarted(address indexed aToAddress, address indexed aFromAddress, uint aId, uint aAmount);\n  event TransactionCompleted(address indexed aToAddress, address indexed aFromAddress, uint aId, uint aAmount);\n  event TransactionAborted(address indexed aToAddress, address indexed aFromAddress, uint aId, uint aAmount);\n\n}\n",
  "sourcePath": "/Users/Kyle/Documents/safesend/contract/contracts/SafeSend.sol",
  "compiler": {
    "name": "solc",
    "version": "0.8.11+commit.d7f03943.Emscripten.clang"
  },
  "schemaVersion": "3.4.4",
  "updatedAt": "2022-07-15T23:10:58.901Z",
  "networkType": "ethereum",
  "devdoc": {
    "kind": "dev",
    "methods": {},
    "version": 1
  },
  "userdoc": {
    "kind": "user",
    "methods": {},
    "version": 1
  }
}